:020000040800F2
:10000000180A002029120008B5020008B7020008EB
:10001000BB020008BF020008C30200080000000085
:10002000000000000000000000000000C7020008FF
:10003000C902000800000000CB020008CD02000841
:10004000431200084312000843120008431200083C
:10005000431200084312000843120008431200082C
:10006000431200084312000843120008431200081C
:10007000431200084312000843120008431200080C
:10008000B31000084312000843120008431200088E
:1000900043120008431200084312000843120008EC
:1000A00043120008431200084312000843120008DC
:1000B00043120008431200084312000843120008CC
:1000C00043120008431200084312000843120008BC
:1000D00043120008431200085F1000089D11000839
:1000E000431200084312000843120008431200089C
:1000F000431200084312000843120008431200088C
:10010000431200084312000843120008431200087B
:10011000431200084312000843120008431200086B
:10012000431200084312000843120008431200085B
:1001300000F002F800F03AF80AA090E8000C8244BF
:100140008344AAF10107DA4501D100F02FF8AFF29C
:10015000090EBAE80F0013F0010F18BFFB1A43F0A5
:10016000010318473831000058310000103A24BF0D
:1001700078C878C1FAD8520724BF30C830C144BF0C
:1001800004680C607047000000230024002500264E
:10019000103A28BF78C1FBD8520728BF30C148BFEA
:1001A0000B6070471FB51FBD10B510BD02F002FFF8
:1001B0001146FFF7F7FF00F019F802F020FF03B433
:1001C000FFF7F2FF03BC00F08BFF000010B500F05A
:1001D00069FE4FF4E13000F092FF4FF4E13000F09F
:1001E000F3FE00F066FD00F075FA10BDFFF7EEFFBC
:1001F0004FE02848006828490968401A03D025487C
:100200000068254908602348006824490968401AA5
:10021000052803D31F480068204908601D4800686E
:100220001F490968401A0A2803D31A4800681C4964
:100230000860184800681B490968401A142803D34D
:100240001448006817490860124800681649096890
:10025000401A642805D300F0F6F90E4800681249E8
:1002600008600C48006811490968401AB0F5FA7F27
:1002700003D9084800680D490860064800680C4921
:100280000968401AB0F57A7F03D30248006808492C
:100290000860AEE7200000200000002004000020DD
:1002A000080000200C000020100000201400002096
:1002B00018000020704700BFFEE700BFFEE700BF48
:1002C000FEE700BFFEE770477047704702480068CE
:1002D000401C014908607047200000200CB5002038
:1002E000019000906C48006840F480306A490860D2
:1002F00000BF6948006800F4003000900198401C7D
:100300000190009818B90198B0F5A06FF1D162483A
:10031000006800F4003010B10120009001E00020DE
:1003200000900098012843D15C48006840F010001C
:100330005A4908600846006820F003000860084633
:10034000006840F002000860534840685249486025
:100350000846406848600846406840F4806048604D
:100360000846406820F47C1048600846406840F425
:10037000E81048600846006840F08070086000BFE0
:100380004548006800F000700028F9D042484068F5
:1003900020F00300404948600846406840F00200F1
:1003A000486000BF3C48406800F00C000828F9D1C4
:1003B0000CBD10B5FFF792FF10BD10B536480068B0
:1003C00040F001003449086008464068344908405C
:1003D0003149486008460068324908402E490860A3
:1003E0000846006820F4802008600846406820F431
:1003F000FE0048604FF41F008860FFF7DAFF4FF0FF
:1004000000602949086010BD10B5002100200022BD
:10041000214B5B6803F00C0121B1042906D00829A7
:1004200028D107E0214B224C236027E01F4B204CB2
:10043000236023E0184B5B6803F47010164B5B6875
:1004400003F48032022303EB904022B9194B43435B
:10045000174C23600DE0104B5B6803F4003323B1AD
:10046000144B4343124C236003E0104B4343104CA6
:10047000236003E00D4B0E4C236000BF00BF064B12
:100480005B68C3F303130C4CE15C094B1B68CB4066
:10049000074C236010BD0000001002400020024005
:1004A0000000FFF8FFFFF6FE08ED00E000127A0002
:1004B0002400002000093D00280000202DE9F05F05
:1004C0000024A246A346A14600F064F9002871D199
:1004D00079480078002806DD77480078401E764984
:1004E0000870BDE8F09F4CF2503000F084FC00F042
:1004F000C5F972490870052000F0E3F904460620AA
:1005000000F0DFF98246072000F0DBF9834608207F
:1005100000F0D7F98146A4F1800002F0AAFD074659
:10052000674A684B02F0BCFD054602F073FD04B259
:10053000C9F17F0002F09DFD05460022624B02F0EA
:10054000AFFD074602F066FD0FFA80F9B9F1000F22
:1005500031DD002C11DD204604EBD07109EB610187
:1005600009B25A4A118004EBD071A9EB610109B2BA
:10057000518000201146087263E0002C11DA2046F9
:1005800004EBD07109EB610109B2504A118004EB10
:10059000D071A9EB610109B25180002011460872A7
:1005A0004FE04A48A0F80090A0F802900020474988
:1005B000087246E03CE0B9F1000F30DA002C11DDA2
:1005C000204604EBD07109EB610109B23F4A11806A
:1005D00004EBD071A9EB610109B2518000201146F2
:1005E00008722EE0002C11DA204604EBD07109EBE2
:1005F000610109B2354A118004EBD071A9EB6101A8
:1006000009B251800020114608721AE02F48A0F864
:100610000090A0F8029000202C49087211E02748B1
:10062000007870B90020294908804880087208E0E5
:1006300000202649088048800120087203201E49B6
:10064000087000BF4DE770B500250024FFF736FFA6
:100650004AF2A5501E490880142088700120C870F5
:10066000022008710620487118480088C880174881
:10067000408808811548808848811448C08888814E
:100680001248007AC8731148407A08740F48807A7B
:10069000088200BF05E00E4830F914000544601CD4
:1006A000C4B2092CF7DB28B2094948820846817890
:1006B00000F0FEFB70BD0000390000203800002073
:1006C000CDCCCCCCCCCC0440000004408000002039
:1006D0002602002008B50121482001F04FF94FF40F
:1006E0006040ADF8000010208DF8030003208DF865
:1006F00002006946754800F085FE4FF48050ADF861
:10070000000028208DF8030003208DF802006946C0
:100710006E4800F077FE08BD38B504460120009011
:1007200000206B494870012000902EE0BDF80000C9
:10073000204018B101206749086002E000206549A7
:1007400008600120634908310860322000F053FB43
:1007500000206149C1F8BC01322000F04CFB0120AF
:100760005D49C1F8BC010846D0F8300130B15848A5
:100770004078BDF80010084355494870BDF80000A6
:100780004FF6FF7101EA40000090BDF80000FF281D
:10079000CCDD38BD10B500204E49091D08604F4919
:1007A0000878FFF7B9FF4D494878FFF7B5FF0120FA
:1007B0004949C1F8B80146484078732801D1002062
:1007C00010BD0120FCE71CB5002001900120009025
:1007D00000204049091D086040490878FFF79CFF48
:1007E0003E494878FFF798FF0220019033E001204E
:1007F000009024E001203749083108600020364984
:10080000C1F8BC01322000F0F6FA01203249C1F8EB
:10081000BC010846D0F8300150B12D489DF80410B5
:10082000405CBDF80010084329499DF80420885415
:10083000BDF800004FF6FF7101EA40000090BDF8DE
:100840000000FF28D6DD322000F0D5FA9DF8040024
:10085000401CC0B201909DF804000928C7DB0120AC
:100860001C49091D08601CBD002004E00021184A35
:100870001154411CC8B20928F8DB704710B5FFF7C6
:10088000F3FFFFF7A0FF1248C0781149097940EA49
:1008900001201349088000240FE0124810F81400CA
:1008A000401E012101FA00F00D490988084010B9E5
:1008B000601CC0B210BD601CC4B2102CEDDB002067
:1008C000F8E701460248405C70470000000C014018
:1008D0008C000020B4812142008021423C00002095
:1008E0003A0000203E00002030B589B005460C4695
:1008F0000121480301F042F80121112001F03EF8E6
:100900004FF47070ADF8200018208DF823000320FC
:100910008DF8220008A9FC4800F074FDADF81850CD
:10092000ADF814400020ADF81A00ADF8160005A986
:10093000F64801F05FFB7020ADF804000120ADF82F
:1009400006000020ADF80A00ADF80C0001A9EF4840
:1009500001F08DFB01A9ED4801F0CBFB01A9EB48AB
:1009600001F014FC01A9E94801F05BFC0121E74812
:1009700001F0A8FE0821E54801F0C8FF0821E3487E
:1009800001F0CDFF0821E14801F0D6FF0821DF4842
:1009900001F0DBFF0121DD4801F088FF0121DB4888
:1009A00001F084FE0021D94802F018F90021D7484F
:1009B00002F016F90021D54802F014F90021D348BD
:1009C00002F012F909B030BD30B589B005460C46C9
:1009D0000121C80200F0D2FF0121052000F0CEFF66
:1009E0004FF47060ADF8200018208DF8230003202C
:1009F0008DF8220008A9C64800F004FDADF8185093
:100A0000ADF814400020ADF81A00ADF8160005A9A5
:100A1000C04801F0EFFA7020ADF804000120ADF8F5
:100A200006000020ADF80A00ADF80C0001A9B94895
:100A300001F01DFB01A9B74801F05BFB01A9B54816
:100A400001F0A4FB01A9B34801F0EBFB0121B1487F
:100A500001F038FE0821AF4801F058FF0821AD48E9
:100A600001F05DFF0821AB4801F066FF0821A948AD
:100A700001F06BFF0121A74801F018FF0121A548F3
:100A800001F014FE0021A34802F0A8F80021A148BB
:100A900002F0A6F800219F4802F0A4F800219D482A
:100AA00002F0A2F809B030BD00B587B001210846B8
:100AB00000F064FF0121022000F06DFF01210420FD
:100AC00000F05CFFC020ADF8180048208DF81B0036
:100AD00003208DF81A0006A98D4800F093FC01222E
:100AE00040218B4800F03FFD01228021884800F022
:100AF0003AFD44F62060ADF810000020ADF80C007F
:100B0000ADF81200ADF80E0003A9834801F072FAA7
:100B10000A231A460321804801F07BFE684601F053
:100B2000A8FD0820ADF8080069467B4801F0F5FCF7
:100B30000121794802F080F801221146764801F03F
:100B4000D0FD00207449243108800121724801F051
:100B5000ADFD07B000BD00B587B00121084600F02B
:100B60000DFF0121042000F016FF0121082000F0F4
:100B700005FFC020ADF8180048208DF81B000320A9
:100B80008DF81A0006A9654800F03CFC01224021BE
:100B9000624800F0E8FC01228021604800F0E3FC9C
:100BA00044F62060ADF810000020ADF80C00ADF860
:100BB0001200ADF80E0003A9594801F01BFA0A23F0
:100BC0001A460321564801F024FE684601F051FD03
:100BD0000820ADF808006946514801F09EFC01214B
:100BE0004F4802F029F8012211464D4801F079FDE5
:100BF00000204B49243108800121494801F056FD6D
:100C000007B000BD00B587B00121084600F0B6FE70
:100C10000121082000F0BFFE0121042000F0AEFEFB
:100C20000320ADF8180048208DF81B0003208DF834
:100C30001A0006A9364800F0E5FB012211463448A7
:100C400000F091FC01220221314800F08CFC44F6B6
:100C50002060ADF810000020ADF80C00ADF81200D7
:100C6000ADF80E0003A92F4801F0C4F90A231A4673
:100C700003212C4801F0CDFD684601F0FAFC082064
:100C8000ADF808006946274801F047FC01212548D6
:100C900001F0D2FF01221146224801F022FD00207E
:100CA00020492431088001211E4801F0FFFC07B0D3
:100CB00000BD30B51C4800684FF47A72B0FBF2F109
:100CC000B1F1807F00D31DE021F07F40401E4FF046
:100CD000E022506150170F22002807DA13071D0E7B
:100CE000124B00F00F04241F1D5503E013071C0EC8
:100CF0000F4B1C5400BF00204FF0E02290610720F2
:100D0000106100BF30BD0000001001400034014000
:100D100000080140002C014000040040000C01408C
:100D200000080040000C00402400002018ED00E006
:100D300000E400E010B56FF0040000F0E4FA55485C
:100D400000685549B0FBF1F0544908700846007836
:100D500000EB4001C1EBC0104FF6FF7101EAC0008B
:100D60004F49088010BD01464C4A12784A434FF063
:100D7000E0235A6100229A611A46126942F0010288
:100D80001A6100BF4FF0E022106900F001021AB1B1
:100D900000F48032002AF5D04FF0E022126922F0F0
:100DA00001024FF0E0231A6100229A617047014668
:100DB0003B4A12884A434FF0E0235A6100229A616D
:100DC0001A46126942F001021A6100BF4FF0E02298
:100DD000106900F001021AB100F48032002AF5D047
:100DE0004FF0E022126922F001024FF0E0231A6175
:100DF00000229A617047002100BF48E000BF00BF99
:100E000000BF00BF00BF00BF00BF00BF00BF00BFEA
:100E100000BF00BF00BF00BF00BF00BF00BF00BFDA
:100E200000BF00BF00BF00BF00BF00BF00BF00BFCA
:100E300000BF00BF00BF00BF00BF00BF00BF00BFBA
:100E400000BF00BF00BF00BF00BF00BF00BF00BFAA
:100E500000BF00BF00BF00BF00BF00BF00BF00BF9A
:100E600000BF00BF00BF00BF00BF00BF00BF00BF8A
:100E700000BF00BF00BF00BF00BF00BF00BF00BF7A
:100E800000BF00BF00BF00BF00BF00BF491C8142C0
:100E9000B4D370472400002000127A005E000020C6
:100EA0006000002010B54FF4A06000F0DDF910BD27
:100EB00070B505460C460021834801F0A2FFC82CFE
:100EC00001D9002070BD22462946804801F0F7FF75
:100ED00021467D4801F0AAFF01217B4801F091FFE6
:100EE0000120EFE700B58BB00121084600F039FD85
:100EF0007548143801F0B8FE734801F0B5FE744827
:100F000000907448019000200290C82003900020B7
:100F100004908020059000200690079008904FF4E0
:100F20004050099000200A9069466748143801F043
:100F30003DFF01216448143801F063FF64480090CC
:100F40006248019010200290092003900020049034
:100F50008020059000200690079008904FF4805064
:100F6000099000200A906946574801F01FFF0122AE
:100F700040215748001F00F065FE0122802154489F
:100F8000001F00F05FFE0BB000BD08B510208DF80B
:100F9000000000208DF8010001208DF802008DF87E
:100FA0000300684600F065F926208DF80000002057
:100FB0008DF8010002208DF8020001208DF8030059
:100FC000684600F056F908BD10B586B00446012108
:100FD000480400F0E0FC0121052000F0CFFC0420D3
:100FE000ADF8140018208DF8170003208DF81600B6
:100FF00005A9394800F006FA0820ADF814000420CD
:101000008DF8170005A9344800F0FCF90194002080
:10101000ADF80800ADF80A00ADF80C00ADF810000E
:101020000C20ADF80E0001A92948001F00F04DFD6D
:10103000FFF7ABFFFFF756FF012240F2244124489F
:10104000001F00F0DAFD01212148001F00F0C9FD5A
:1010500040211F48001F00F0ACFE06B010BD70B567
:1010600040F224411A48001F00F0ACFE00B31848BB
:10107000001F0088C4B216480088C4B2002112487C
:10108000143801F0BEFE1048143801F0D1FE0546B8
:101090002A461049114801F012FFC8210A481438A5
:1010A00001F0C4FE01210848143801F0AAFE00BF77
:1010B00070BD10B54FF4001001F0BEFE18B14FF432
:1010C000001001F0ECFE10BD800002405E01002027
:1010D0000444004096000020000801408A020020DD
:1010E000014600BF704700BF4B4A128802F0400221
:1010F000002AF9D0C2B2484B1B1D1A80704710B5A8
:1011000086B004460121082000F038FC0121880443
:1011100000F041FC4FF48060ADF8140003208DF81E
:10112000160018208DF8170005A93C4800F06AF950
:101130004FF40060ADF8140004208DF8170005A9E5
:10114000364800F05FF927208DF8000003208DF865
:1011500001008DF8020001208DF80300684600F0C0
:1011600088F801940020ADF80800ADF80A00ADF849
:101170000C00ADF810000C20ADF80E0001A92648B7
:1011800000F0A3FC012240F22551234800F035FD78
:101190000121214800F025FD06B010BD10B540F238
:1011A00025511D4800F00EFE10B31B4800F08AFDCB
:1011B000C4B21B48008800F40040C8B91848008831
:1011C00000F4804060B10A2C03D00020144908804C
:1011D00020E01348008840F400401149088019E0DD
:1011E0000D2C06D10E48008840F480400C49088040
:1011F00010E00B480088C0F30D000A490C54084861
:101200000088401C0649088008460088C72801DD80
:101210000020088010BD000000480040000C014084
:1012200068000020EE020020094880470948004776
:10123000FEE7FEE7FEE7FEE7FEE7FEE7FEE7FEE786
:10124000FEE7FEE704480549054A064B70470000E3
:10125000BB0300083101000818040020180A002010
:10126000180600201806002031490143314A116058
:10127000704770B5002100230F22C47804B32D4CB1
:10128000246804F4E064C4F5E064210AC1F10403B5
:10129000CA40447804FA03F18478144021430901D8
:1012A000254C0678A155047804F01F050124AC40B4
:1012B00005786D11AD0005F1E025C5F8004109E0A4
:1012C000047804F01F050124AC401C4D067876110B
:1012D00045F8264070BD1A4A0A400243154B1B1FB1
:1012E0001A60704739B1134A121D12680243114B3C
:1012F0001B1D1A6006E00F4A121D126882430D4B37
:101300001B1D1A607047042808D14FF0E0210969BD
:1013100041F004014FF0E022116107E04FF0E021BD
:10132000096921F004014FF0E022116170470000CB
:101330000000FA050CED00E000E400E080E100E0D0
:1013400080FFFF1F10B50446CC48844208D101211C
:10135000042000F02DFB0021042000F029FB46E0D2
:10136000C748844208D10121082000F021FB002158
:10137000082000F01DFB3AE0C248844208D1012158
:10138000102000F015FB0021102000F011FB2EE0D2
:10139000BD48844208D10121202000F009FB002132
:1013A000202000F005FB22E0B848844208D101214A
:1013B000402000F0FDFA0021402000F0F9FA16E08C
:1013C000B348844208D10121802000F0F1FA0021C5
:1013D000802000F0EDFA0AE0AE48844207D10121F6
:1013E000801500F0E5FA0021A01500F0E1FA10BD2B
:1013F00010B50121084600F0DBFA0021012000F0C1
:10140000D7FA10BD2DE9F041024600250026002044
:1014100000230024002791F803C00CF00F0591F879
:1014200003C00CF0100CBCF1000F03D091F802C007
:101430004CEA050591F800C0BCF1000F31D01468EA
:1014400000202BE04FF0010C0CFA00F3B1F800C0C3
:101450000CEA03069E4220D183004FF00F0C0CFAD9
:1014600003F7BC4305FA03FC4CEA040491F803C0FB
:10147000BCF1280F06D14FF0010C0CFA00FCC2F8A9
:1014800014C00AE091F803C0BCF1480F05D14FF039
:10149000010C0CFA00FCC2F810C0401C0828D1D383
:1014A0001460B1F800C0BCF1FF0F34DD54680020B7
:1014B0002EE000F1080C4FF0010808FA0CF3B1F827
:1014C00000C00CEA03069E4221D183004FF00F0CAE
:1014D0000CFA03F7BC4305FA03FC4CEA040491F848
:1014E00003C0BCF1280F05D100F1080C08FA0CF874
:1014F000C2F8148091F803C0BCF1480F07D100F185
:10150000080C4FF0010808FA0CF8C2F81080401CD3
:101510000828CED35460BDE8F0814FF6FF710180FA
:10152000022181700421C170704702460020936837
:101530000B400BB1012000E0002070470146886895
:1015400080B2704702460020D3680B400BB10120E7
:1015500000E0002070470146C86880B27047016112
:101560007047416170470AB1016100E04161704715
:10157000C16070474FF480320A43826181618261A9
:1015800082698269704702460020434B18684FF613
:101590008073184040EA021008433F4B18607047C0
:1015A0003E49C8617047F0B50A4600230024002177
:1015B000002500F00046B6F1004F02D1364EF16929
:1015C00001E0354E7168C0F3034583B200F4401664
:1015D000B6F5401F08D121F070612F4E766826F0D5
:1015E00070662D4F7E6012E000F48016B6F5801F05
:1015F00006D1032606FA05F4A14341F0706106E026
:10160000460D360103FA06F6B14341F0706122B18E
:10161000460D360103FA06F6314300F00046B6F1F6
:10162000004F02D11C4EF16101E01B4E7160F0BD14
:1016300030B500228B071C0F0F2303FA04F2164B60
:1016400008338C1053F824309343134C08348D1016
:1016500044F8253023468C1053F824308C07240F8F
:1016600000FA04F423430C4C08348D1044F8253060
:1016700030BD0A49DC3108607047000000080140B5
:10168000000C01400010014000140140001801400E
:10169000001C0140002001400000014000002042E9
:1016A000DF48006840F00100DD49086008464068F6
:1016B000DC490840DA49486008460068DA490840D1
:1016C000D74908600846006820F480200860084672
:1016D000406820F4FE0048604FF41F0088607047A7
:1016E000CF49096821F48031CD4A1160114609685B
:1016F00021F480211160B0F5803F03D0B0F5802F38
:101700000ED106E0C649096841F48031C44A11602F
:1017100007E0C349096841F4A021C14A116000E013
:1017200000BF00BF704710B5014600220023002013
:101730004A11012A02D1BA4C236806E0022A02D1DA
:10174000B74C236A01E0B64C636A01F01F02012422
:1017500094401C400CB1012000E0002010BD38B5C1
:10176000002000900024002500BF3120FFF7DBFFA0
:1017700005460098401C00900098B0F5A06F01D07D
:10178000002DF2D03120FFF7CEFF08B1012400E098
:101790000024204638BD01460020A14A106820F0F0
:1017A000F80040EAC10010607047A0490860704727
:1017B000024600209A4B586820F47C1042EA01034C
:1017C0001843974B58607047984908667047014620
:1017D0000020934A506820F003000843506070478F
:1017E0008F48406800F00C007047014600208C4A8A
:1017F000506820F0F0000843506070470146002018
:10180000874A506820F4E060084350607047014602
:101810000020834A506820F4605040EAC1005060C4
:10182000704729B17E4A527A02437D4B5A7204E0D6
:101830007B4A527A82437A4B5A7270477B49D8313D
:101840000860704701460020754A506820F4404007
:101850000843506070470021714A20321170704A6D
:1018600082F82010012802D004280AD104E00121C6
:101870006B4A2032117005E00521694A203211704F
:1018800000E000BF00BF70476949086070476449C5
:10189000096A0143624A1162704765494439086028
:1018A000704730B500210022002400235C4D6D6894
:1018B00005F00C0121B1042905D0082923D105E048
:1018C0005C4D056022E05B4D05601FE0544D6D6886
:1018D00005F47012524D6D6805F48034022505EB55
:1018E00092421CB9544D554305600BE04C4D6D6858
:1018F00005F400351DB1504D5543056002E04D4DD6
:101900005543056002E04B4D056000BF00BF444DEC
:101910006D6805F0F0010909484D6B5C0568DD4014
:1019200045603F4D6D6805F4E061090A434D6B5C0D
:101930004568DD4085603A4D6D6805F46051C90A1F
:101940003E4D6B5C4568DD40C560354D6D6805F406
:101950004041890B3A4D6B5CC568B5FBF3F50561F9
:1019600030BD29B12E4A526902432D4B5A6104E021
:101970002B4A526982432A4B5A61704729B1284A3F
:1019800092690243264B9A6104E0254A9269824398
:10199000234B9A61704729B1214AD2690243204BF7
:1019A000DA6104E01E4AD26982431D4BDA61704756
:1019B00029B11B4AD2680243194BDA6004E0184A85
:1019C000D2688243164BDA60704729B1144A126913
:1019D0000243134B1A6104E0114A12698243104B0F
:1019E0001A61704712494039086070470F49C8644E
:1019F00070470B49C87170470948406A40F08070D1
:101A000007494862704701460020054A92680A402B
:101A10000AB1012000E00020704701498872704738
:101A2000001002400000FFF8FFFFF6FE00004242F7
:101A30008004424200127A0000093D006A00002042
:101A40007A00002010B50446FB48844209D10121E8
:101A50008803FFF7ADFF00214FF48040FFF7A8FF98
:101A600032E0F648844209D101214804FFF7ADFF76
:101A700000214FF40030FFF7A8FF25E0F048844232
:101A800009D101218804FFF7A0FF00214FF4802035
:101A9000FFF79BFF18E0EB48844209D10121C804FD
:101AA000FFF793FF00214FF40020FFF78EFF0BE0BC
:101AB000E548844208D101210805FFF786FF00218F
:101AC0004FF48010FFF781FF10BD2DE9F04786B07D
:101AD00005460E460024A24600BFA1460027B08955
:101AE00000B100BF2F462C8A4CF6FF700440F088EE
:101AF00004432C82AC894EF6F3100440B08831893F
:101B00000843718908430443AC81AC8A4FF6FF4017
:101B10000440B0890443AC8201A8FFF7C2FEC64866
:101B2000874202D1DDF810A001E0DDF80CA0A88901
:101B300000F4004040B10AEBCA0000EB0A10316823
:101B40004900B0FBF1F807E00AEBCA0000EB0A100D
:101B500031688900B0FBF1F86420B8FBF0F00401B3
:101B60002009642101FB1089A88900F4004040B1DC
:101B7000322000EBC900B0FBF1F000F00700044395
:101B800008E0322000EB09106421B0FBF1F000F016
:101B90000F0004432C8106B0BDE8F0874FF41651C6
:101BA000016000218180C18001810C2141810021DF
:101BB0008181704710B502460020108A4FF2FF0362
:101BC00018400B884C8823438C882343CC882343BC
:101BD0001843108210BD0021018041808180C180A6
:101BE000704721B1828942F40052828104E08289E7
:101BF0004DF6FF731A4082817047F0B5034600240A
:101C000000260025002040F66A17B94200D100BF27
:101C10001846C1F3421401F01F06012707FA06F522
:101C2000012C01D10C3004E0022C01D1103000E075
:101C300014301AB107682F43076002E00768AF430A
:101C40000760F0BD1AB1838A0B43838202E0838A66
:101C50008B4383827047028A4FF6F0731A400282E8
:101C6000028A0A430282704782894FF2FF731A4048
:101C7000828182890A438281704721B1828942F040
:101C80000202828104E082894FF6FD731A4082814C
:101C90007047028A4FF6DF731A400282028A0A43B3
:101CA0000282704721B1028A42F48042028204E03B
:101CB000028A4BF6FF731A4002827047C1F3080292
:101CC0008280704701468888C0F308007047818988
:101CD00041F0010181817047028BD2B20283028BF5
:101CE00042EA012202837047028B02F47F420283A0
:101CF000028B0A430283704721B1828A42F020029C
:101D0000828204E0828A4FF6DF731A408282704733
:101D100021B1828A42F01002828204E0828A4FF668
:101D2000EF731A408282704721B1828A42F0080222
:101D3000828204E0828A4FF6F7731A4082827047EB
:101D400021B1828942F40042828103E08289C2F398
:101D50000E028281704721B1828A42F4006282823F
:101D600004E0828A4FF2FF731A4082827047828AAF
:101D70004FF6FB731A408282828A0A43828270473E
:101D800021B1828A42F00202828204E0828A4FF606
:101D9000FD731A408282704702460020B1F5007F31
:101DA00000D100BF13880B400BB1012000E00020E0
:101DB000704701F40072B2F5007F00D100BFCA4342
:101DC0000280704770B502460024002300250020E1
:101DD00040F66A16B14200D100BFC1F3421501F0CE
:101DE0001F03012606FA03F3012D02D19689334021
:101DF00006E0022D02D1168A334001E0968A334074
:101E00000C12012606FA04F41688344013B10CB102
:101E1000012000E0002070BD10B50022002340F634
:101E20006A14A14200D100BF0A1201249440A3B257
:101E3000DC43048010BD0000003801400044004035
:101E400000480040004C00400050004010B50446DF
:101E5000FE48844208D10121C014FFF7A9FD0021EA
:101E6000E014FFF7A5FDC4E0B4F1804F08D10121D3
:101E70000846FFF7AAFD00210120FFF7A6FDB8E004
:101E8000F348844208D101210220FFF79EFD002182
:101E90000220FFF79AFDACE0EE48844208D1012110
:101EA0000420FFF792FD00210420FFF78EFDA0E043
:101EB000E948844208D101210820FFF786FD00216E
:101EC0000820FFF782FD94E0E448844208D1012114
:101ED0001020FFF77AFD00211020FFF776FD88E043
:101EE000DF48844208D101212020FFF76EFD002148
:101EF0002020FFF76AFD7CE0DA48844208D1012106
:101F00004014FFF755FD00216014FFF751FD70E00C
:101F1000D548844209D10121C804FFF749FD0021B9
:101F20004FF40020FFF744FD63E0D048844209D11C
:101F300001210805FFF73CFD00214FF48010FFF759
:101F400037FD56E0CA48844209D101214805FFF710
:101F50002FFD00214FF40010FFF72AFD49E0C5488E
:101F6000844208D101214020FFF72FFD00214020AD
:101F7000FFF72BFD3DE0C048844208D101218020BD
:101F8000FFF723FD00218020FFF71FFD31E0BB4854
:101F9000844208D101218015FFF717FD0021A0150B
:101FA000FFF713FD25E0B648844209D1012108045A
:101FB000FFF7FEFC00214FF48030FFF7F9FC18E03A
:101FC000B048844209D101214804FFF7F1FC002107
:101FD0004FF40030FFF7ECFC0BE0AB48844208D133
:101FE00001218804FFF7E4FC00214FF48020FFF773
:101FF000DFFC10BD00220288944B98420ED0994B12
:1020000098420BD0B0F1804F08D0914B984205D048
:10201000904B984202D0904B984204D14FF68F7368
:102020001A404B881A438D4B984207D08C4B9842EC
:1020300004D04FF6FF431A40CB881A4302808B88A6
:1020400083850B880385814B98420BD0854B984242
:1020500008D08B4B984205D08A4B984202D08A4BCD
:10206000984201D10B7A038601238382704770B5B1
:10207000002400220023058C4FF6FE7635400584AF
:10208000028C8388048B4FF68F752C40B51E2C4034
:102090000D882C43751E2A400D892A434D882A43FA
:1020A0006A4DA8420BD06F4DA84208D0744DA8428B
:1020B00005D0744DA84202D0734DA84213D14FF6FB
:1020C000F7752A404D892A434FF6FB752A408D88C3
:1020D0002A434FF6FF652B404FF6FF552B408D8965
:1020E0002B43CD892B4383800483CD88858602844E
:1020F00070BD70B5002400220023058C4FF6EF76EA
:1021000035400584028C8388048B48F6FF752C408B
:102110004FF6FF452C400D884FF6FF7606EA052561
:102120002C434FF6DF752A400D8906EA05152A4330
:102130004D8806EA05152A43444DA84202D0494D70
:10214000A8421DD14FF67F752A404D894FF6FF7684
:1021500006EA05152A434FF6BF752A408D8806EA20
:1021600005152A434FF6FF352B404FF2FF752B40E4
:102170008D8906EA85052B43CD8906EA85052B4323
:1021800083800483CD880587028470BD70B50024E8
:1021900000220023058C4FF6FF6635400584028C33
:1021A0008388848B4FF68F752C404FF6FC752C403E
:1021B0000D882C434FF6FF552A400D894FF6FF76C8
:1021C00006EA05252A434D8806EA05252A431F4DC0
:1021D000A84202D0234DA8421DD14FF2FF752A40DC
:1021E0004D894FF6FF7606EA05252A434FF6FF355F
:1021F0002A408D8806EA05252A434EF6FF752B40B6
:102200004DF6FF752B408D8906EA05152B43CD89C8
:1022100006EA05152B4383808483CD888587028455
:1022200070BD70B5002200230024058C4EF6FF76A9
:1022300035400584038C8488828B48F6FF752A40DC
:102240004FF6FF452A400D8820E00000002C014099
:102250000004004000080040000C00400010004056
:102260000014004000340140004C01400050014087
:102270000054014000180040001C004000200040B5
:102280000040014000440140004801404FF6FF7605
:1022900006EA05252A434DF6FF752B400D8906EA0F
:1022A00005352B434D8806EA05352B43FA4DA842E8
:1022B00002D0FA4DA84208D14BF6FF752C408D890B
:1022C0004FF6FF7606EA85152C4384808283CD88FD
:1022D000A0F84050038470BD828B4FF2FF331A4048
:1022E0008283828B4FF6FF7303EA01231A438283B2
:1022F0007047F0B50C461546002200210026078CD9
:102300004EF6FF7C07EA0C070784828B018C4FF6A0
:10231000FF7707EA043640F6FF473A404FF6FF776B
:1023200007EA05273A434FF6FF7707EA03373A43B0
:10233000D94FB8420ED0D94FB8420BD0B0F1804F30
:1023400008D0D74FB84205D0D64FB84202D0D64FAA
:10235000B84206D14DF6FF77394046F480573943ED
:1023600005E047F6FF57394044F4805739438283EC
:102370000184F0BD828B4FF6F3731A408283828B07
:102380000A4382837047F0B50C46154600220021AF
:102390000026078C4FF6FF6C07EA0C070784828B38
:1023A000018C4FF6FF7707EA04264FF60C773A4088
:1023B0004FF6FF7707EA03172F433A43B64FB84269
:1023C0000ED0B64FB8420BD0B0F1804F08D0B44F0A
:1023D000B84205D0B34FB84202D0B34FB84206D18D
:1023E0004FF6FF57394046F48077394305E04FF206
:1023F000FF57394044F48077394382830184F0BD2C
:10240000028B4FF2FF331A400283028B4FF6FF73A9
:1024100003EA01231A4302837047F0B50C461546C0
:10242000002200210026078C4FF6EF7C07EA0C07FC
:102430000784028B018C4FF6FF7707EA041640F6FB
:10244000FF473A404FF6FF7707EA03373A434FF624
:10245000FF7707EA05273A438F4FB8420ED08F4FD8
:10246000B8420BD0B0F1804F08D08D4FB84205D0A4
:102470008C4FB84202D08C4FB84206D14FF6DF776E
:10248000394046F01007394305E04FF65F77394091
:1024900044F01007394302830184F0BD028B4FF6EC
:1024A000F3731A400283028B0A4302837047F0B52C
:1024B0000C46154600220021068C4FF6FE773E4062
:1024C0000684028B018C4FF60C7632407E1C06EAA5
:1024D00003162E433243704EB0420ED06F4EB042C0
:1024E0000BD0B0F1804F08D06D4EB04205D06D4E8C
:1024F000B04202D06C4EB04206D14FF6FD7631406C
:1025000044F00106314305E04FF6F576314044F0E2
:102510000106314302830184F0BD70B505460C46C7
:102520005D4885420ED05D4885420BD0B5F1804FA5
:1025300008D05B48854205D05A48854202D05A48A7
:10254000854200D100E000BF208850B92389A288CD
:1025500061882846FFF7ABFFE1882846FFF79EFF1A
:1025600025E0208804280AD12389A288618828468A
:10257000FFF753FFE1882846FFF742FF17E0208866
:1025800008280AD12389A28861882846FFF7FBFE24
:10259000E1882846FFF7EEFE09E02389A2886188DA
:1025A0002846FFF7A6FEE1882846FFF795FE70BD96
:1025B0002DE9F04105460C4600260127608808B940
:1025C000022600E00026A088012801D1022700E0B1
:1025D00001272088A0B92389A28861882846FFF7AF
:1025E00066FFE1882846FFF759FF23893A463146BE
:1025F0002846FFF712FFE1882846FFF701FF13E0A6
:102600002389A28861882846FFF707FFE1882846CA
:10261000FFF7F6FE23893A4631462846FFF747FF83
:10262000E1882846FFF73AFFBDE8F0810A884B8829
:102630001A438B881A43CB881A430B891A434B8958
:102640001A438B891A43A0F8442070474FF6FF7154
:10265000818000210180C18041800172704700218A
:10266000018041808180C180018141818181C1815E
:102670007047002101804180012181800021C180BB
:10268000018170470021018041808180C1800181EA
:102690004181818170470000002C014000340140DD
:1026A0000004004000080040000C004021B10288F6
:1026B00042F00102028004E002884FF6FE731A40E5
:1026C0000280704731B1B0F8442042F40042A0F8D3
:1026D000442005E0B0F84420C2F30E02A0F84420E4
:1026E00070471AB183890B43838102E083898B434E
:1026F000838170478182704741EA0203A0F8483025
:1027000070471AB183890B43838102E083898B432D
:102710008381704701894FF6F8721140018170473B
:102720000A46002101894FF68F7319401143018138
:10273000704730B504460D4629462046FFF7F0FFA6
:10274000208940F00700208130BD2DE9F04104468A
:102750000D4616461F46602D06D13B4601223146E6
:102760002046FFF75AFE05E03B460122314620464F
:10277000FFF79DFE29462046FFF7D2FF208940F053
:1027800007002081BDE8F08130B50C4600210189A9
:10279000C9B24FF6FF7505EA0325154325432943C2
:1027A000018130BD2DE9F04105460E461746984699
:1027B000002443463A4631462846FFF7E5FF2C8978
:1027C0004FF6F870044044F007044FF68F70044051
:1027D00044F070042C81BDE8F081F0B504460D464C
:1027E00016461F463B46324629462046FFF7CCFF99
:1027F000208940F480402081F0BD018582827047AD
:102800000A46002101884FF68F7319401143018059
:102810007047F0B50C4615461E46002100220023E5
:102820000189028B038C4FF6F877394021434FF62C
:10283000FC473A4040F201173A434FF6DD773B4000
:102840004FF6FF7707EA06172F433B4301810283C8
:102850000384F0BD0A460021018B4FF68F731940A7
:102860001143018370470A460021018B48F6FF732C
:1028700019404FF6FF7303EA02231943018370479F
:102880000A460021818B4FF68F73194011438183D3
:1028900070470A460021818B48F6FF7319404FF6B6
:1028A000FF7303EA022319438183704721B1028831
:1028B00042F08002028004E002884FF67F731A40E3
:1028C0000280704721B1828842F00402828004E0D5
:1028D00082884FF6FB731A408280704721B182884C
:1028E00042F00802828004E082884FF6F7731A40B3
:1028F0008280704721B1828842F00102828004E028
:1029000082884FF6FE731A40828070470A46002183
:10291000018B4FF6F77319401143018370470A4644
:102920000021018B4FF2FF7319404FF6FF7303EA4A
:1029300002231943018370470A460021818B4FF619
:10294000F77319401143818370470A460021818B38
:102950004FF2FF7319404FF6FF7303EA0223194346
:10296000818370470A460021018B4FF6FB731940A3
:102970001143018370470A460021018B4FF6FF3354
:1029800019404FF6FF7303EA02231943018370478E
:102990000A460021818B4FF6FB7319401143818356
:1029A00070470A460021818B4FF6FF3319404FF6DE
:1029B000FF7303EA02231943818370470A4600210B
:1029C000018B4FF67F7319401143018370470A460C
:1029D0000021018BC1F30E014FF6FF7303EA0223BE
:1029E0001943018370470A460021818B4FF67F739C
:1029F00019401143818370470A460021818BC1F33E
:102A00000E014FF6FF7303EA0223194381837047D7
:102A10000A460021018C4FF6FD73194011430184D1
:102A200070470A460021018C4FF6F7731940114395
:102A3000018470470A460021018C4FF6DF7319406C
:102A40004FF6FF7303EA02131943018470470A46E5
:102A50000021018C4FF67F7319404FF6FF7303EA94
:102A600002131943018470470A460021018C4FF676
:102A7000FF5319404FF6FF7303EA02231943018401
:102A800070470A460021018C4FF2FF7319404FF640
:102A9000FF7303EA02231943018470470A460021A9
:102AA000018C4DF6FF7319404FF6FF7303EA0233B2
:102AB00019430184704730B5002301248C40A3B230
:102AC000048C9C430484048C02FA01F5ADB22C43BF
:102AD000048430BD30B5002304248C40A3B2048CA0
:102AE0009C430484048C02FA01F5ADB22C430484A7
:102AF00030BD70B50346002000241846183001256B
:102B00008D40ACB21D8CA5431D8409B1082909D1A3
:102B100000EB6100056825F0700505600568154348
:102B200005600EE00D1FC5F34E052844056825F429
:102B3000E045056005684FF6FF7606EA0226354354
:102B4000056070BD21B1028842F00202028004E0FB
:102B500002884FF6FD731A400280704721B1028847
:102B600042F00402028004E002884FF6FB731A4030
:102B70000280704721B1828842F08002828004E0A6
:102B800082884FF67F731A408280704702884FF622
:102B9000F7731A40028002880A43028070478288D5
:102BA0004FF68F731A40828082880A438280704772
:102BB00002894FF6F8731A40028102890A430281A2
:102BC000704702894FF67F731A40028102890A43D7
:102BD0000281704781847047818570478186704784
:102BE0000187704781877047A0F8401070470288BE
:102BF0004FF6FF431A40028002880A430280704762
:102C00000146888E70470146088F70470146888FBD
:102C100070470146B1F8400070470146888C704704
:102C20000146088D704702460020138A0B400BB105
:102C3000012000E000207047CA430282704730B58F
:102C40000246002000230024158A05EA0103958925
:102C500005EA010413B10CB1012000E0002030BDF1
:102C6000CA4302827047000001684FF6FE721140AD
:102C700001600021016041608160C1608D4988422E
:102C800008D18C490839496841F00F01894A083A4E
:102C900051608AE087491431884208D18549083952
:102CA000496841F0F001834A083A51607DE081496A
:102CB0002831884208D17F490839496841F4706158
:102CC0007C4A083A516070E07A493C31884208D128
:102CD00078490839496841F47041764A083A5160A8
:102CE00063E074495031884208D172490839496813
:102CF00041F470216F4A083A516056E06D496431E1
:102D0000884208D16B490839496841F47001694A21
:102D1000083A516049E067497831884208D16549ED
:102D20000839496841F07061624A083A51603CE0F4
:102D30006149884206D1011F096841F00F01021F55
:102D4000116032E05C491431884208D15A49091FA8
:102D5000096841F0F001584A121F116025E05649F8
:102D60002831884208D15449091F096841F470612B
:102D7000514A121F116018E04F493C31884208D176
:102D80004D49091F096841F470414B4A121F1160F7
:102D90000BE049495031884207D14749091F09686A
:102DA00041F47021444A121F1160704710B500228F
:102DB000026847F6F0739A430C6A8B6823430C69E8
:102DC00023434C6923438C692343CC6923434C6AD6
:102DD00023438C6A23431A430260CB6843600B6829
:102DE00083604B68C36010BD002101604160816059
:102DF000C160016141618161C161016241628162C1
:102E0000704721B1026842F00102026004E00268EA
:102E10004FF6FE731A40026070471AB103680B4305
:102E2000036002E003688B430360704741607047B2
:102E30000146486880B2704701460020002201F038
:102E400080531BB11C4B083B1A6802E0194B083B2E
:102E50001A6802EA01030BB1012000E0002070476C
:102E600000F0805119B11449091F086002E01149AE
:102E700008394860704701460020002201F0805365
:102E80001BB10D4B083B1A6802E00A4B083B1A685D
:102E900002EA01030BB1012000E00020704700F0BE
:102EA000805119B10449091F086002E0014908393D
:102EB0004860704708000240080402407047032A37
:102EC00040F2308010F0030C00F0158011F8013B47
:102ED000BCF1020F624498BF11F801CB00F8013B2E
:102EE00038BF11F8013BA2F1040298BF00F801CBF2
:102EF00038BF00F8013B11F0030300F02980083AC5
:102F0000C0F0088051F8043B083A51F804CBA0E81F
:102F10000810F5E7121D5CBF51F8043B40F8043B74
:102F2000AFF30080D20724BF11F8013B11F801CBA9
:102F300048BF11F8012B24BF00F8013B00F801CB7A
:102F400048BF00F8012B70477047704770477047C3
:102F500010B5203AC0F00B80B1E81850203AA0E834
:102F60001850B1E81850A0E81850BFF4F5AF5FEA68
:102F7000027C24BFB1E81850A0E8185044BF18C91B
:102F800018C0BDE810405FEA827C24BF51F8043BC2
:102F900040F8043B08BF7047D20728BF31F8023B16
:102FA00048BF11F8012B28BF20F8023B48BF00F8AA
:102FB000012B7047754600F029F8AE4605006946BA
:102FC000534620F00700854618B020B5FEF73AF9C1
:102FD000BDE820404FF000064FF000074FF000081A
:102FE0004FF0000B21F00701AC46ACE8C009ACE89B
:102FF000C009ACE8C009ACE8C0098D46704704467A
:10300000AFF300802046FDF7DAF800000048704773
:10301000B80300204FEA41034FEA5353A3F58063FE
:10302000D3F11E03C8BFD3F1210C0CDD4FF00042D9
:1030300042EAC12242EA505232FA03FC8CEAE17CB5
:10304000ACEBE1707047102BC4BF0020704703F554
:10305000787CBCF1FF3F04D06FF0004282EA21008F
:10306000704770B500F0C6F8499224800020704780
:10307000F2E710F0004248BF4042B0FA80F310FA85
:1030800003F10AD0C3F11D0303F580634FEA4150F9
:1030900002EB035202EBD12170474FF00000704762
:1030A000DFF848C170B51CEA111E1EBF1CEA1315DB
:1030B0009EEA0C0F95EA0C0F00F06F8081EA030482
:1030C00023EA4C134EEAD47E21EA4C1141F48011DC
:1030D00043F48013AE44A1FB024CA0FB0365AEF1A8
:1030E0007F7E361955EB0C05A1FB034C4CF1000318
:1030F000A0FB021C16EB0C06654153F100030942CC
:1031000018BF46F0010613F4007F0BD14FEA0331DC
:103110004FEA0530340341EA155140EA16506FF08A
:1031200003020AE04FEAC3214FEAC520F40241EA54
:10313000555140EA56506FF0020202EB2E4201EB6D
:10314000025585EACE710AD05FEA440C18BF24F01C
:10315000004450F1000041F1000120EAD47040F237
:10316000FE7C624500D270BDA84214BF4FF080447F
:103170004FF04044002E08BF0024BEF1806FA8BF6E
:10318000A1F1C041BDE8704080F282804FF00000A4
:1031900001F1C04101F0004170479EEA0C0F0CEABA
:1031A000131518BF95EA0C0F06D04FF0000081EA06
:1031B000030E0EF0004170BD00F01CF88900013EC6
:1031C00000F007B800F009B84FEA430C5FEA5C5C16
:1031D00008D081EA030100F05BB84FEA410C5FEAD6
:1031E0005C5CF6D14FF00000014970470000FF071A
:1031F0000000F87F0EF1020E2EF0030E5EF8046B55
:10320000364205D4012A43EB030515F5001F12D8F9
:10321000012841EB010C1CF5001F0CD80ED14FEA20
:10322000D17C15F5001F0CEB4C0C0CF1020C08BF07
:103230004CEBD37C04E04FF0080C01E04FEAD37C68
:103240000CEB4C0526FA05F606F00706B6F1040C61
:1032500006D20EEB860CBDE870404CF0010C6047C6
:10326000DFE80CF0090B02024FF000414FF00000C4
:10327000A1F5002170BD19461046012851EB01044B
:1032800018BFD4F5001484BF002001F0004170BDC8
:103290000808A0F500114FEA31017047BC32000860
:1032A00000000020800000006C0100083C33000892
:1032B000800000209809000088010008000000003C
:1032C00000000000000000000000000000000000FE
:1032D00000000000000000000000000000000000EE
:1032E00000A24A04000000000000000001020304E4
:1032F0000607080900000000014201000200030067
:103300000400050006000700080009000A000B0081
:103310000C000D000E000F00100000000000000067
:103320000000000000000000000001020304010290
:0C33300003040607080902040608000058
:0400000508000131BD
:00000001FF
